:100000000C94BB020C94D8020C94D8020C94D80225
:100010000C94D8020C94D8020C94D8020C94D802F8
:100020000C94D8020C94D8020C94B12D0C94992EF7
:100030000C94662D0C94D8020C94D8020C94D8021F
:100040000C94D8020C94D8020C94D8020C94D802C8
:100050000C94D8020C948D2D0C94D8020C94D802D8
:100060000C94D8020C94D8020C94D8020C94D802A8
:100070000C94D8020C94D8020C94D8020C94D80298
:100080000C94D8020C94D8020C94D8020C94D80288
:100090000C94D8020C94D8020C94D8020C94D80278
:1000A0000C94D8020C94D8020C94D8020501098053
:1000B000A101850319012AB700150126B700950192
:1000C00075108100C0050C0901A101850419012AE0
:1000D000A002150126A002950175108100C005013E
:1000E0000906A1018506050719E029E71500250184
:1000F0009508750181020507190029EF15002501F2
:1001000095F075018102050819012905950575010C
:100110009102950175039101C00660FF0961A1017B
:100120000962150026FF00952075088102096315F4
:100130000026FF00952075089102C005010906A15F
:1001400001050719E029E7150025019508750181CA
:10015000029501750881010507190029FF15002680
:10016000FF0095067508810005081901290515008D
:100170002501950575019102950175039101C00056
:10018000000000000000000000000000000000006F
:10019000000000000000000000000000000000005F
:1001A0000000007E0F00D4FFFFFFC70000007800B2
:1001B000000000000000002A2B28000000000000C2
:1001C0000000000000000000000029000000002CDA
:1001D0001E3420212224342627252E362D37382779
:1001E0001E1F202122232425263333362E37381F85
:1001F0000405060708090A0B0C0D0E0F1011121347
:100200001415161718191A1B1C1D2F3130232D35E4
:100210000405060708090A0B0C0D0E0F1011121326
:100220001415161718191A1B1C1D2F3130354C09BF
:10023000025B00030100A0FA0904000001030101B0
:100240000009211101000122440007058103080073
:10025000010904010002030000000921110100014D
:100260002222000705820320000107050303200066
:10027000010904020001030000000921110100012D
:10028000226D000705840320000112010002000016
:100290000008584D01000001010203011C03760013
:1002A000690061006C003A006600360034006300AB
:1002B0003200620033006300000022037900650011
:1002C00074002D0061006E006F007400680065000E
:1002D00072002D006500720067006F0000000E03C1
:1002E0004D00760072006C00650078000000040389
:1002F0000904290014001A000800150017001C004A
:1003000018000C00120013004C000000040016003E
:10031000070009000A000B000D000E000F0034005A
:100320002A00E3001D211B220624190005001100EC
:100330001000360037002D002800000000000000EB
:10034000000022522C00E1002152000000000000B9
:10035000000000000000000000000000000000009D
:10036000000000000000000000000000000000008D
:10037000000000000000000000000000000000007D
:10038000000000000000000000000000000000006D
:10039000000000000000000000000000000000005D
:1003A000000000000000000001000000000000004C
:1003B000000000000000000000000000000000003D
:1003C000000000000000000000000000000000002D
:1003D000000000000000000000000000000000001D
:1003E000000000000000000000000000000000000D
:1003F00000000000000000000000000000000000FD
:1004000000000100000000000000000000000000EB
:1004100000000100010024057C1492140000020079
:10042000020020057C149214000003000100250541
:100430007C1492140000040002000A057C1492143B
:1004400053060500010026057C14921400000600E6
:1004500002000C057C149214000007000200220523
:100460007C14921400000800010027057C149214EB
:1004700000001200020028057C14921400001300F2
:1004800002002A057C1492140000140001002C05BF
:100490007C14921400001500000000005C06080E99
:1004A0000000FD377A585A000004E6D6B446020030
:1004B000210116000000742FE5A3E0018300925D86
:1004C000003D8889A654750A36E182AEFA7A1AA6EA
:1004D000FCA2ED4951391A5E7177BBD0558C3BA80F
:1004E00032869F744EF98317003EA32C7C4E911CDC
:1004F0001B94136B8FE092900CC567021352AD9C56
:10050000D8CC3A2B464B7F7E2959A9526928C2B8CC
:10051000A8C0A206971AFA4C5CD546662206442467
:100520004CBF96363F6F0153B2D474B810E85E8268
:10053000270057887951A5677524FBA58C35D758B6
:10054000BA8B2AD28E7B2D3A949ABBE7943ABD6E31
:1005500045496D00000089B5421DB6610D9000014E
:10056000AE0184030000C6125EBDB1C467FB020089
:1005700000000004595A11241FBECFEFDAE0DEBF9D
:10058000CDBF11E0A0E0B1E0EAE2F0E602C00590E4
:100590000D92A83AB107D9F725E0A8EAB1E001C069
:1005A0001D92A333B207E1F70E94B1260C94B82F35
:1005B0000C9400009C019A9581159F4118F5F32F2A
:1005C000F270EE27832F8170732F74706627532F7C
:1005D0005870442734FF0CC08295807FEF2B09F0C0
:1005E0008062672B09F08064452B69F0806808956C
:1005F000EF2B09F08260672B09F08460452B19F01E
:100600008860089580E00895CF93DF93EB010E9406
:10061000DA02FE010995DF91CF910895282F929576
:100620009F70963099F060F4925F9F70923030F432
:10063000203FB1F038F481E0283E38F080E00895A2
:100640009A5FF3CF81E0243FC9F7089591E0813F9D
:1006500009F090E081E0283E08F080E0892B0895C1
:1006600081E0089580930805089580930905089511
:1006700021E030E001C0220F8A95EAF78091090558
:10068000822B0E943503089521E030E0A90102C0C9
:10069000440F551F8A95E2F7CA018095909109058C
:1006A00089230E9435030895292F943090F58C30CA
:1006B00080F590E03CE0239F800D911D1124282FB0
:1006C000277041E001C0440F2A95EAF723E0969590
:1006D00087952A95E1F7FC01EE0FFF1FE80FF91F40
:1006E000E65EFC4F20E030E070E05191DF01CB018D
:1006F000022E02C0969587950A94E2F78170819543
:100700008527842385278E932F5F3F4F2330310524
:1007100061F70895292F943078F58C3068F590E0D2
:100720003CE0239F800D911D1124682F677023E00A
:10073000969587952A95E1F7FC01EE0FFF1FE80FCC
:10074000F91FE65EFC4F40E050E080E0219130E090
:10075000062E02C0369527950A94E2F721703327BA
:10076000042E01C0220F0A94EAF7822B4F5F5F4FDD
:100770004330510559F7089580E008959091090597
:1007800021E030E0F90101C0EE0F8A95EAF7D901C6
:1007900002C0AA0FBB1F6A95E2F7EA2B01C0220F25
:1007A0004A95EAF7892F8E23E81305C0892F822BFB
:1007B0000E94350308952095822F8923F9CF8091D7
:1007C000C8029091C702981301C008958F5F877087
:1007D000FACF909156048095892380935604282F50
:1007E0002770211111C0891779F090912F0592FF80
:1007F0000BC08695869586950E94440310925604F8
:100800001092580410925704089590915204982B16
:10081000909352040895982F9095809152048923C3
:1008200080935204089580915004811531F0109204
:10083000500410924F0410924E0408959C01803E83
:10084000910509F448C0D8F48133910509F47DC0BD
:1008500048F48932910509F46DC08A9709F47CC087
:10086000C90108958933910551F18238910539F113
:10087000C597B1F780912E0585FFF2CF29C0843E40
:10088000910509F447C048F4823E910599F1833EF1
:100890009105A9F121EE30E0E3CF863E910509F400
:1008A00044C0873E9105E1F680912E0583FD61C02D
:1008B00090912F0591FF2BC024EE30E0D1CF809195
:1008C0002E058370811152C080912F0583FFC8CF00
:1008D00029E230E0C5CF80912E0580FD33C0909194
:1008E0002F0590FFBDCF23EE30E084FFB9CF20E08D
:1008F00030E0B6CF80912E0582FDF5CFB1CF80914B
:100900002E0582FD30C090912F0590FD2FC084FFF1
:10091000A7CFEDCF80912F0581FFA2CF80912E052B
:1009200027EE30E084FDE3CF9BCF80912E0583FD41
:10093000F7CF96CF80912E0585FD1EC080912F05A3
:1009400083FF8ECF29E330E08BCF80912E0586FF89
:1009500087CF2AE230E084CF80912E0586FF80CFBA
:1009600021E330E07DCF22EE30E07ACF20EE30E0A0
:1009700077CF26EE30E074CF25E330E071CF909151
:100980002E0592FF10C041E0282F2471243009F079
:1009900040E031E0282F2871283009F030E043177B
:1009A00011F02CE0822793FF10C041E0282F247122
:1009B000243109F040E031E0282F2871283109F076
:1009C00030E0431711F02CE0822730912F0530FFE3
:1009D00010C051E0282F2171213009F050E041E092
:1009E000282F2871283009F040E0541711F029E031
:1009F000822731FF10C041E0282F2171213109F0F9
:100A000040E031E0282F2871283109F030E0431709
:100A100011F029E0822794FD877E08951F93CF93DC
:100A2000DF930E941E04EC01811522E5920708F075
:100A300055C0811540E5940708F0D1C0803E91056E
:100A400020F58D3C910508F0A4C0883A910570F41A
:100A5000853A910508F09AC081309105D1F104974B
:100A6000813A9105B0F1C0E0D0E033C0885A9109D5
:100A70004B97C8F7C85AD0E0CC0FDD1FC55CDE4FDE
:100A80000990D881C02DD46424C0811550E4950705
:100A9000C0F4C11580E2D80708F0B7C0C83ED10540
:100AA000C0F0CE019A9581159F41E8F68D2F0E94E6
:100AB000BF04182FCE0199270E941E04EC01D12BF0
:100AC00008C099270E941E04CC27DF70C82BD92BA1
:100AD000D06ACE01DF91CF911F910895803842E511
:100AE0009407C8F5803652E5950708F05BC0C0341E
:100AF00082E5D807D0F4C03292E5D90708F04BC0A0
:100B00008C2F8695869520E2829FC0011124C370A8
:100B100021E030E0A90102C0440F551FCA95E2F759
:100B2000EA01C82BD92BDD68D4CF8C2F869586950A
:100B3000877050E2859FC0011124C37021E030E02E
:100B4000A90102C0440F551FCA95E2F7EA01C82B5C
:100B5000D92BDC68BECF803C52E5950758F48F71E5
:100B6000C03AD245A0F590E0982F8827EC01C46FD9
:100B7000D06AAFCF805C9245809708F074CFDC2FAD
:100B8000CC27CC27DF71C06FD06AA3CFA497D064E5
:100B9000A0CFD0659ECFCF71D0E0DC2FCC27C16F26
:100BA000D06A97CF86958695877020E2829FC00194
:100BB0001124C37021E030E0A90102C0440F551F89
:100BC000CA95E2F7EA01C82BD92BDA6882CF0E94D6
:100BD000BF04C82FD0E0DC2FCC27D0627ACF8F7132
:100BE0000E94BF0493E0CC0FDD1F9A95E1F7CC275C
:100BF000DF70282F30E084FF04C050E1859F900112
:100C00001124C22BD32BD06964CF8D2F8F710E94FA
:100C1000BF04182FCE0199270E941E04EC01D12B8E
:100C2000DCCF80E00895F894E82FE295EF70F0E0D3
:100C300041A18F7021E030E0B90102C0660F771F3B
:100C40008A95E2F7CB01962F9095942391A392A1D8
:100C5000892B82A3789408959C0121158CE738078D
:100C600041F48091940290919502892B11F420E037
:100C700030E0C9010895EBEBF3E080E090E062EC36
:100C800075E248EE55E22DE536E2778366835187BB
:100C900040873387228797878687019670968830AA
:100CA000910599F7089580910A0590910B0590930D
:100CB0000B0180930A010895EF92FF920F931F9307
:100CC000CF93DF93FB018FEF9FEF4430510508F482
:100CD0005FC040912E0541FB882780F990E0880F86
:100CE000991F42FB002700F910E0000F111F000FB1
:100CF000111F802B912B40FBEE24E0F8F12C8E2964
:100D00009F2943FB222720F9C22F50E0D52F53E023
:100D1000CC0FDD1F5A95E1F78C2B9D2B44FB22272E
:100D200020F950E1259F90011124822B932B45FB44
:100D3000222720F950E2259F90011124822B932B2A
:100D400046FB222720F950E4259F90011124822B95
:100D5000932B47FB222720F940E8249F9001112480
:100D6000822B932B20912F05322F3170932B2695B8
:100D70002170B22FBB0FA0E08A2B9B2B092E000CF9
:100D8000AA0BBB0B80839183A283B38380E090E0A6
:100D9000CDB7DEB7E6E00C94192F9C0143E09695A1
:100DA00087954A95E1F78E719927FC01ED50FE4F2A
:100DB00040815181F901EF70FF2721E030E002C04E
:100DC000220F331FEA95E2F7611541F0422B532BB6
:100DD0008D509E4FFC01518340830895209530959E
:100DE00042235323F5CF10929A0410929904E9E517
:100DF000F4E08581811102C014821682379684E066
:100E0000E139F807B1F70895AC0130919C04609185
:100E10009B04232F621301C00895822F90E0FC01F0
:100E2000EE0FFF1FEF56FB4F0190F081E02DE4170E
:100E3000F50791F467E0649FF001659FF00D1124C0
:100E4000E75AFB4F41E044832313E6CF01968370BA
:100E5000992780939C0408950196282F2370DACF58
:100E6000FC018481862381110AC082818115B9F039
:100E70006823908593FF05C081E061110FC080E079
:100E80000895282F22952F708F70282B962F9295DA
:100E90009F706F70962B81E02913F1CF089581E048
:100EA0000895FA01309709F009950895E091BD027F
:100EB000F091BE02309729F00190F081E02D099564
:100EC000089580E00895A3E0B0E0E9E6F7E00C942F
:100ED000012F9C018091F0019091F10182179307FD
:100EE000A1F03093F1012093F001E091BD02F09167
:100EF000BE02309751F083E089833B832A830084CC
:100F0000F185E02DCE01019609952396E2E00C943F
:100F10001D2FA3E0B0E0EFE8F7E00C94012F9C0157
:100F20008091EE019091EF0182179307A1F0309329
:100F3000EF012093EE01E091BD02F091BE023097E7
:100F400051F084E089833B832A830084F185E02D7E
:100F5000CE01019609952396E2E00C941D2F909105
:100F60000E01913091F0ACEAB1E0EFEF90E02D91FD
:100F7000821751F0EF3F19F4211101C0E92F9F5F53
:100F80009630A9F7EF3FC9F4089590912E0597FF89
:100F9000EACFE82FE695E695E695803FA8F7F0E0E2
:100FA000EE54FE4F877021E030E001C0220F8A9599
:100FB000EAF78281822B828308950E2E000CFF0BAC
:100FC000E655FE4FF8CF90910E01913021F49091AB
:100FD0002E0597FD0CC0ECEAF1E09191891302C057
:100FE000DF011E9251E0E23BF507B9F70895E82FC3
:100FF000E695E695E695803FC8F7F0E0EE54FE4FA3
:10100000877021E030E0A90102C0440F551F8A9586
:10101000E2F7CA01809592818923828308958091A5
:101020000D0108952FB7F8948091EA019091EB019A
:10103000A091EC01B091ED012FBF089580910C05B6
:1010400090910D05892B91F00E94120820914E0479
:1010500030914F04AC01421B530B9A0181E0409147
:101060000C0550910D052417350708F480E008950C
:10107000CF93DF93C091520480915504C82B809187
:1010800050048115F9F080910C0590910D05892B84
:1010900029F00E941E0881110E941304D09150046F
:1010A00080910E01813021F480912E0587FD14C0BE
:1010B00086E02CEA31E090E0815090F491110E949A
:1010C0001304CD2B8091370380958C2390913603A8
:1010D000892BDF91CF9108958EE124EB31E0EBCFA6
:1010E000F90141919F01411539F39F5FE5CF962F9B
:1010F00020912F0522FF10C0682F660F660F660F24
:10110000692B609356040E9438030E941208909342
:1011100058048093570408950E94380308959091CD
:101120005004292F2823211561F08095892380936D
:101130005004811539F00E94120880934E04909358
:101140004F04089580E090E0F8CFCF93C82F8091AE
:101150002F0582FF0CC0809150048C1741F00E9433
:10116000120890934F0480934E04C0935004CF9183
:1011700008952FB7F8946091EA017091EB01809186
:10118000EC019091ED012FBF0895CF92DF92EF9285
:10119000FF92CF93DF93D82FC92FC090B503D09083
:1011A000B603E090B703F090B8030E94B9086C1939
:1011B0007D098E099F09643F71408105910518F1F1
:1011C0000E94B9086B017C0182E390E0A0E0B0E0EE
:1011D000C0928302D0928402E0928502F09286024D
:1011E00080937F0290938002A0938102B093820249
:1011F000D093B303C093B403DF91CF91FF90EF90EE
:10120000DF90CF90089584EF91E0A0E0B0E0E0CFD0
:1012100087E797E7909301088093000888E19AE0B8
:101220000FB6F894A895809360000FBE909360006D
:10123000FFCF0895FC019B018091E0019091E101B5
:101240008617970740F0672B29F48091E8008E7786
:101250008093E800C90140E0009741F4411106C0C5
:101260008091E80082FF2FC080E0089520919602CF
:101270002115A9F12530A9F12091E80023FD2DC009
:101280002091E80022FDECCF2091E80020FFE4CF80
:101290003091F3002091F200009719F028303105C9
:1012A00058F041E02830310509F040E02091E80095
:1012B0002E772093E800D0CF41914093F100019721
:1012C0002F5F3F4FE9CF80919602811541F0853025
:1012D00041F08091E80083FFC3CF81E0089582E070
:1012E000089583E008958091DA0187FF13C080910B
:1012F000E80082FF06C08091E8008B778093E800C9
:101300000895809196028111F2CF089580919602FE
:101310008115D9F38091E80080FFF8CF8091E80033
:101320008E77ECCF2091E4003091E50095E6A9019D
:101330002091EC00822F817020FF06C08091E80090
:1013400080FF06C080E008952091E80022FD1AC0C9
:1013500080919602811589F0853089F08091EB00AB
:1013600085FD0FC02091E4003091E500421753073E
:10137000F9F29A95E1F684E0089582E0089583E019
:10138000089581E00895E8EDF0E080818E7F80830C
:101390001092E2001092DA001092E100A0EEB0E0AC
:1013A0008C9181608C9380818F77808319BCA7EDAD
:1013B000B0E08C918E7F8C9380818F7E80831092A1
:1013C000D9010895982F9093E900891771F07091D1
:1013D000EC002091ED005091F00021FD09C09F5FCD
:1013E000973089F78093E9000895762F242F50E0F5
:1013F0003091EB003E7F3093EB003091ED003D7F6C
:101400003093ED003091EB0031603093EB0070933E
:10141000EC002093ED005093F0002091EE0027FDAA
:10142000DECF0895A0E0B0E0E8E1FAE00C94FB2EF6
:10143000C8EDD0E088818F7E8883E7EDF0E0808181
:101440008160808384E082BF81E08093D9018881BC
:101450008E7F888302EE10E0F80110821092DA008D
:1014600081EEC82ED12CF601108288818F77888377
:1014700088818068888388818F7D888319BC1092D9
:1014800096021092D801109275021092D70190EE38
:10149000E92EF12CF70180818B7F80838881816028
:1014A000888342E060E080E00E94E209F6018081EA
:1014B0008E7F8083F8018081816080838081886055
:1014C0008083F70180818E7F80838881806188831B
:1014D000CDB7DEB7E8E00C94172F9C01211531053C
:1014E00009F408958FE99FE00197F1F700C000002B
:1014F00021503109F3CF0F931F93CF93DF938B01CB
:10150000EA0190919602943059F58093E9008FEFAB
:101510009091E80095FD06C095ED9A95F1F70000D1
:101520008A95B1F78091E80085FF1AC00E94920960
:10153000811111C08091E80085FD06C08091E8000E
:101540008E778093E800F2CFF80181918F0180932C
:10155000F100219779F78091E8008E778093E80079
:10156000DF91CF911F910F910895CF93DF93D82FE3
:10157000C92F48E050E0682F792F81E00E947B0A54
:1015800088E0ED2FFC2FA2EEB1E001900D928A953C
:10159000E1F7DF91CF910895BC0140E250E084E093
:1015A0000E947B0A0895BC0143E050E084E00E9461
:1015B0007B0A089590912F0592FB222720F9281786
:1015C00079F080FB92F990932F0560912E05709130
:1015D0002F0584E090E00E949A2F82E00E94E903A8
:1015E00008951F93CF93DF93962F122F632F282FE9
:1015F000292B2430C8F44C30B8F4C42FD0E0CC0FE1
:10160000DD1F28E1929FC00DD11D112490E6899F16
:10161000C00DD11D1124CE0188960E947C2F612F10
:10162000CE0189960E947C2FDF91CF911F91089562
:10163000CF93DF93CCEBD2E060E0CE010E947C2F11
:101640002196C11584E0D807B9F7DF91CF910895AD
:10165000CF93C82F66E9811101C06FEF84E290E05B
:101660000E947C2F6CE3C11101C06FEF85E290E016
:101670000E947C2F6DE6C11101C06FEF86E290E001
:101680000E947C2FCF9108950F931F93CF93DF93E8
:101690000AE015E0C8EAD1E0CE010E945E2FF80111
:1016A00061918F01681719F0CE010E947C2F21965D
:1016B000CC3CF1E0DF0781F7DF91CF911F910F91D3
:1016C00008950F931F93CF93DF930AE015E0C8EAC4
:1016D000D1E0CE010E945E2FF80181938F01219607
:1016E000CC3CF1E0DF07A9F7CCE1D4E0FE01859125
:1016F0009491009711F0FC0109952C96F4E0CC3AF6
:10170000DF07A1F7DF91CF911F910F9108950F93FC
:101710001F93CF93DF93982F962B943020F54C3066
:1017200010F5C42FD0E0CC0FDD1F28E1629FC00D63
:10173000D11D112430E6839FC00DD11D1124CE018F
:1017400088960E945E2F082F10E0102F0027CE01F0
:1017500089960E945E2F9801282BC901DF91CF91B5
:101760001F910F91089580E090E0F8CF462F672FEA
:101770002091990230919A02232B91F4703F39F411
:10178000403F71F480919702909198020895982FAC
:10179000972B943028F44C3018F40E94870B08954E
:1017A00080E090E00895A0E0B0E0E9EDFBE00C946B
:1017B000FC2E7C010091090580910805082BC3E0EF
:1017C000D0E010E0C8010C2E02C0959587950A94D0
:1017D000E2F780FD09C02197A8F7D12C8D2DCDB758
:1017E000DEB7E7E00C94182FDC2EB7018C2F0E9497
:1017F000B60B0E940E05019771F3F0CFCF93DF93E4
:10180000D82FC92F0E94D30B6D2F7C2F0E94B60BAF
:101810000E940E05DF91CF910895FC01848181150E
:1018200071F087819085009729F00E940E050E9433
:101830000E030895808191810E94FE0BF8CF80E015
:1018400008951F93CF93DF93182FD92F611599F027
:10185000411589F00E94D30BC82F682F812F9D2F2F
:101860000E945403612F7D2F8C2F0E94B60BDF91B5
:10187000CF911F9108950E948A03C82FF3CFCF9371
:10188000DF93FC01462FC781D085209731F4658115
:10189000808191810E94210CEC01CE01DF91CF91DA
:1018A000089584E290E00E945E2F863989F485E2F3
:1018B00090E00E945E2F8C3359F486E290E00E9403
:1018C0005E2F91E08D3609F090E0892F81700895A8
:1018D00080E0FCCF80910E01813059F580912E057A
:1018E00087FF27C00E9438088093B30140E250E090
:1018F0006DE972E082EB91E00E94312F892BC1F0FB
:1019000080E2E2EBF1E0ADE9B2E001900D928A9560
:10191000E1F7E091BD02F091BE02309749F086E018
:101920008093B2010480F581E02D82EB91E009956E
:1019300008950E9438088093AA0148E050E06FEBB8
:1019400072E08AEA91E00E94312F892B89F388E0C6
:10195000EAEAF1E0AFEBB2E001900D928A95E1F78F
:10196000E091BD02F091BE02309711F30280F38145
:10197000E02D8AEA91E0DBCF811521F00E94050479
:101980000E946A0C0895811539F090915504892BB5
:10199000809355040E946A0C0895811521F00E94DD
:1019A0000B040E946A0C0895811541F08095909176
:1019B00055048923809355040E946A0C0895CF939F
:1019C000C82F8115D1F08CEF8C0F813AA0F5809152
:1019D0000E01813021F480912E0587FD10C0ECEAC4
:1019E000F1E08191C81709F121E0E23BF207C9F764
:1019F0008C2F0E94AF070E946A0CCF910895EC2FA4
:101A0000E695E695E695F0E0EE54FE4F828190E093
:101A10004C2F477021E030E002C0220F331F4A955F
:101A2000E2F782239323892B19F38C2F0E94E3077B
:101A30000E946A0CDDCF80E28C0F883048F4C770BA
:101A400081E001C0880FCA95EAF70E940504D3CF50
:101A50008BE58C0F833038F42C2F2452330BC901C3
:101A60000E946307CACFC85ACB3138F6EC2FF0E09A
:101A7000EE0FFF1FEF58FE4F808191810E94890772
:101A8000BCCFCF93DF93EC01805E9109089720F0E3
:101A900063EC7CE0209711F46CEB7CE0CE010E94BB
:101AA00004038C2F0E94DF0CDF91CF9108959C01DD
:101AB000611529F080915504826080935504C90115
:101AC00090528115904308F43327C9010E94410DBB
:101AD0000895811539F19CEF980F913A28F40E94EE
:101AE000E3070E946A0C089590E2980F983050F432
:101AF000877091E001C0990F8A95EAF7892F0E94BB
:101B00000B04EFCF9BE5980F933028F480E090E032
:101B10000E9463070895885A8B3120F480E090E09A
:101B20000E9489070895CF93DF93EC010E94690D0D
:101B3000CE01805E9109089720F064ED7CE020974B
:101B400011F46DEC7CE0CE010E940403DF91CF9193
:101B500008950F931F93CF93C82F8B010E94DF0C22
:101B60000115110539F48C2F0E94690DCF911F9139
:101B70000F9108958FE99FE00197F1F700C00000F1
:101B800001501109EDCF60912A0570912B05893321
:101B900021F060912805709129050E94A90D0895F2
:101BA0001092520480910E018130C1F480912E0573
:101BB00087FF14C0E4EBF1E08EE1DF011D928A950E
:101BC000E9F780E090E00E94630780E090E00E94E7
:101BD0008907109255040E946A0C0895ECEAF1E01E
:101BE00086E0EBCF0E94D00D2FEF84E39CE02150E4
:101BF00080409040E1F700C0000088E19AE00FB615
:101C0000F894A895809360000FBE90936000FFCF7A
:101C1000CF93DF93FB018FEF9FEF44305105B8F076
:101C2000D081C1810E94D00DD0932E05C3708091C8
:101C30002F058C7FC82BC0932F0560912E057091C6
:101C40002F0584E090E00E949A2F80E090E0DF91E1
:101C5000CF910895EAE0F5E0128E138E8FEA90E0BE
:101C60009183808385E0848F28E833E13383228366
:101C700022E330E0378B268B28EC30E0318F208F49
:101C8000158E178E168E20E530E031A320A382A397
:101C90000E94440B0E94D00D10922F0510922E0529
:101CA00080E0846080932F0560E074E084E090E041
:101CB0000E949A2F0E94610B0895AAE2B0E0E3E629
:101CC000FEE00C94002F8AED91E0FC01019620913A
:101CD000F100208321E0823E9207B9F78091DB0179
:101CE000893009F45AC0C8F4823009F4B7C083308F
:101CF00009F486C0813091F18091E80083FFEBC048
:101D00008091DA019091DB019A3008F0E4C0E92F6C
:101D1000F0E0E654F04D0C94E42E8A3009F48DC0C6
:101D20008B3051F78091DA01813231F78091DE01F9
:101D30009091DF01892B01F78091E800877F8093E4
:101D4000E8000E94730981E09091DC01911101C0CB
:101D500080E080930E010E94D00DCECF8091DA01F9
:101D6000813A51F68091E800877F8093E800809166
:101D7000DE019091DF01892B61F060E080E090E06E
:101D800070E00E941A098091E8008B778093E80048
:101D9000B3CF68E082EE91E0F3CF8091DA01813237
:101DA00009F0AACF8091DE019091DF018D7F892B10
:101DB00009F0A2CF8091E800877F8093E8008091AE
:101DC000E80082FF18C09091F3008091F200029722
:101DD00031F48091F100813011F0863021F480914E
:101DE000F10080930D018091E8008B778093E800EB
:101DF0000E94730981CF809196028111E0CF7CCF40
:101E00008091DA01813A09F077CF8091DE019091DB
:101E1000DF01892B09F070CF8091E800877F8093E4
:101E2000E8008091E80080FFFCCF80910E01809354
:101E3000F1008091E8008E77D9CF8091DA0181326C
:101E400009F05ACF8091E800877F8093E8000E94D4
:101E500073098091DD0180930C014ECF8091DA01EE
:101E6000813A09F049CF8091E800877F8093E800AC
:101E70008091E80080FFFCCF80910C01D8CF8038A2
:101E800089F0823841F58091DE018F70873018F536
:101E90008093E9008091EB0085FB882780F9109200
:101EA000E90006C080917502880F9091D701892BB7
:101EB0009091E800977F9093E8008093F100109252
:101EC000F1008091E8008E7723C0811116C08091C7
:101ED000DC01813011F18091E80083FF0AC080911C
:101EE000E800877F8093E8008091EB008062809318
:101EF000EB00AA96E3E00C941C2F823061F78091EE
:101F0000DC01811589F01092E9008091E800877F5B
:101F10008093E8000E947309DECF81E0933009F0DE
:101F200080E080937502EFCF8091DE018F702FEFFC
:101F3000280F263080F68093E9002091EB0020FFE7
:101F4000E2CF933031F48091EB0080628093EB001C
:101F5000DACF9091EB0090619093EB0021E030E0BC
:101F6000A90102C0440F551F8A95E2F74093EA0089
:101F70001092EA008091EB008860E8CF8111ABCF2E
:101F80001091DC011F778091E3008078812B809392
:101F9000E3008091E800877F8093E8000E94730946
:101FA0008091E80080FFFCCF8091E30080688093FF
:101FB000E30083E0111101C082E0809396028BCF91
:101FC0008058823008F087CF8091DC019091DD014C
:101FD0008C3D53E0950799F583E08A838AE28983F3
:101FE0004FB7F894DE01139620E03EE051E2E32F74
:101FF000F0E050935700849120FF03C082958F70CA
:102000003F5F8F708A30C8F0895C90E08D939D931C
:102010002F5F243161F74FBF8091E800877F809365
:10202000E8006AE270E0CE0101960E941A098091F0
:10203000E8008B778093E8004ECF805DE6CF292FB4
:1020400033272330310509F44EC078F521303105AE
:1020500009F488C08BE590E0EFE2F2E02230310530
:1020600009F039CF2091E800277F2093E8002091E4
:10207000E0013091E1018217930708F49C0140E0F0
:102080002115310509F073C0411171C08091E8003C
:1020900082FDCDCF80919602811549F2853039F2CB
:1020A0008091E80083FFF2CFC2CF8091DE01909152
:1020B000DF012132310509F446C02232310509F031
:1020C0000ACF8330910508F006CFFC01EE0FFF1F09
:1020D000E15EFE4F0190F081E02D845E9E4FDC01B9
:1020E0008C9190E010C09C013327823021F1233085
:1020F000310568F4232BB9F4EEEEF2E0E4918E2F73
:1021000090E0EEEEF2E0009709F4E5CEABCF23309D
:10211000310509F0E0CEECE9F2E0E4918E2F90E099
:10212000ECE9F2E0F0CFEEEDF2E0E4918E2F90E0FA
:10213000EEEDF2E0E8CFEAEBF2E0E4918E2F90E0F2
:10214000EAEBF2E0E0CF8330910508F0C4CEFC0169
:10215000EE0FFF1FEB5DFE4F0190F081E02D89E057
:1021600090E080CF82E190E0EAE8F2E07BCF8091DE
:102170009602811509F45BCF853009F458CF809120
:10218000E80083FD54CF8091E80082FD7FCF8091ED
:10219000E80080FF75CF9091F3008091F200211547
:1021A000310519F08830910550F041E0089709F0A9
:1021B00040E08091E8008E778093E80061CF449101
:1021C0004093F1003196215031090196E8CF8038D3
:1021D00009F081CE8091E800877F8093E8008091AC
:1021E000D8018093F1006DCE811175CE1091DC0184
:1021F000123008F070CE8091E800877F8093E8006D
:102200001093D8010E9473091115F9F084E08093AE
:10221000960242E061EC81E00E94E20942E261EC58
:1022200084E00E94E20942E261EC82E00E94E2095D
:1022300042E260EC83E00E94E209809196028430E1
:1022400051F482E080930F0146CE8091E30087FD38
:10225000DDCF81E0DCCF81E0F5CF80911101877F78
:1022600080931101909155049D7F9093550484FFB4
:1022700006C08F7E8093110182E00E940504809148
:10228000110185FF06C08F7D8093110180E20E94BD
:1022900005040E946A0C0895CF92DF92FF920F937B
:1022A0001F93CF93DF93EC018B01F42E80911101EA
:1022B00082FF65C0C0904104D0904204CC16DD0678
:1022C00019F0209709F05BC0809111018B7F8093FA
:1022D0001101C1E081FD10C080913F049091400444
:1022E0009801281B390BC1E080910A0190910B01E4
:1022F0002817390708F4C0E080911101C0FB81F96B
:10230000809311016C2FC6010E94CD06809152046A
:1023100081FF08C08091110180618093110182E0EA
:102320000E940B048091520485FF08C08091110126
:1023300080628093110180E20E940B046C2FC60121
:102340000E94570DF11431F08091250585FF02C0E0
:1023500086FF29C080912805909129050E946D0A69
:1023600080914104909142049C01305221153043E8
:1023700008F499270E94930D0E942D1110C0CE01E0
:10238000905281159043B8F4CE0199270E94930D85
:102390008091410490914204C817D90769F31093C2
:1023A000400400933F04DF91CF911F910F91FF9064
:1023B000DF90CF900895CE01E9CFCF93DF93EC016A
:1023C0004A855B856E857F850E9451079B8190952C
:1023D000809155048923809355048C810E940B04BD
:1023E0000E946A0C86E0FE0111928A95E9F7DF915E
:1023F000CF910895CF93DF93EC018D8181FD14C0BF
:1024000082608D83809155049B81892B8093550434
:102410008C810E9405040E946A0C488559856E854E
:102420007F85CE010E94510710923C0410923B041C
:102430008D8180FD03C0CE010E94DD11DF91CF911F
:1024400008951F93CF93DF93182FA091B103B091FC
:10245000B203109709F44AC01092B4031092B30368
:1024600010923703109236031696CD91DC91179790
:10247000CE019A9581159F4108F4D07ED1E0C1111B
:1024800001C0D0E01996ED91FC911A97309731F088
:102490001B966D917C9180E00995D823D11539F078
:1024A0008CEF8C0F813A30F58C2F0E94E3071115C9
:1024B000A9F0E091B103F091B203808584FD0EC0D4
:1024C0008091B003811551F0808191819C01215050
:1024D00031092F333E4710F40E94C5080E946A0C50
:1024E0001092B2031092B1031092B003DF91CF911A
:1024F0001F9108950E946A0C8C2F0E94690DD7CFFE
:10250000AEE1B0E0E6E8F2E10C94F62EA090940281
:10251000B090950281E090E09093950280939402B0
:10252000812C912C10E0640100E01AC021E030E021
:10253000133021F0F701859194919C01472D602F74
:10254000812F0E94F10A739422E0E20EF11C3CE01C
:102550007312ECCF0F5F8CE0C80ED11C043049F031
:10256000C601880F991FDC01AE50BD4F7D01712C53
:10257000DDCF1F5FB0E38B0E911C1430A1F60E94DB
:102580002A0E1A8219821C821B821E821D821886C4
:102590001F8288EC90E09A8789870CEC11E04AE072
:1025A00050E0B801CE0101960E94A02F065F1F4F98
:1025B0000C3122E0120799F7FE013B968AE0DF0119
:1025C0001D928A95E9F77F014AE050E0B801C70102
:1025D0000E94A02F065F1F4F0C36B2E01B07A1F729
:1025E000FE01759689E0DF011D928A95E9F78FEF6C
:1025F0009FEF9A8F898F87E08E8F7F014AE050E0AE
:10260000B801C7010E94A02F065F1F4F0C3BB2E02C
:102610001B07A1F7B0929502A09294026E96EDE08E
:102620000C94122F80E00E94280B60E087E290E07B
:102630000E947C2F0E9480120E94180B81E00E9451
:10264000280B0895AAE0B0E0E8E2F3E10C94FB2E39
:10265000E4E1F2E080E5DF011D928A95E9F7E9E522
:10266000F4E088E3DF011D928A95E9F784E1C82E42
:1026700082E0D82E7F010CE112E0F701D182C08206
:102680004AE050E0B801CE0101960E944E2F88E04A
:10269000FE013196D60101900D928A95E1F7898568
:1026A0009A85D70113969C938E931297BAE0CB0E1E
:1026B000D11CE7E0EE0EF11C065F1F4F0C36F2E076
:1026C0001F07D9F62A96E8E00C94172FAAE0B0E08D
:1026D000ECE6F3E10C94F92E08E313E08CE6E82E27
:1026E00082E0F82E97E0B92E23E1C22E22E0D22E0E
:1026F000AA24A3944AE050E0B701CE0101960E94BB
:102700004E2FF8013896DF018B2D1D928A95E9F73F
:1027100089819A81D80111969C938E938F8112960C
:102720008C9312978D8113968C93139788851496AA
:102730008C931497898515968C9315978B819C8122
:1027400017969C938E9316978A8587FD04C01E96D4
:10275000DC92CE921D9780FF02C0F801A08681FF17
:1027600007C0D80118969C911897926018969C9370
:1027700082FF04C0F80190859460908783FF07C0B2
:10278000D80118969C911897986018969C9384FF8E
:1027900004C0F80190859061908785FF07C0D8013B
:1027A00018968C911897806218968C93BAE0EB0E6D
:1027B000F11C015F1F4FECEBEE16E2E0FE0609F0A4
:1027C00099CF2A96EAE00C94152F282FCB012830B8
:1027D00070F44AE0249F90011124B90164537E4FA4
:1027E0004AE050E00E944E2F80E090E008958FEF85
:1027F0009FEF0895AAE0B0E0E0E0F4E10C94012F2F
:102800009C0197558115914070F4BE016F5F7F4F19
:10281000822F0E94E513892B31F489859A852A96A7
:10282000E2E00C941D2F8091220590912305F7CFB3
:10283000A0E0B0E0EEE1F4E10C94FC2E162FD72FCF
:10284000C42FD22E8115A9F040934C040E94120887
:102850009093D6018093D501C77081E001C0880FA5
:10286000CA95EAF70E94BC0CCDB7DEB7E7E00C943E
:10287000182F90914C04491338C0E090D501F09086
:10288000D6010E9412089C012E193F097901812F5F
:102890009D2F0E94FA13E816F90638F5D0E2DD0DF7
:1028A000CD15A1F0C77011E0812F01C0880FCA9526
:1028B000EAF70E94CD0CD83048F48D2D877001C006
:1028C000110F8A95EAF7812F0E94BC0C802F0E947D
:1028D000C30DD83048F62D2D277081E001C0880F38
:1028E0002A95EAF70E94CD0CBFCFC77081E001C0E6
:1028F000880FCA95EAF7F6CF9C01CB01DA01F901FE
:10290000329645915491A417B50748F0F9013496D1
:10291000659174910E943E2F80E090E008958FEFC2
:102920009FEF08959C01DA010296FC0145915491B4
:10293000FC0185919491A817B90758F0F9013496D4
:10294000859194910E943E2F0E94440B80E090E07C
:1029500008958FEF9FEF0895A8E0B0E0E2EBF4E177
:102960000C94F32EFE01319688E0DF011D928A95CA
:10297000E9F79BE2C92E91E0D92E8F012F01662441
:102980006394712C3BE3832E31E0932EF601819109
:102990006F018F3F09F445C0F894E82FE295EF707E
:1029A000F0E021A18F70A30102C0440F551F8A954A
:1029B000E2F7CA01922F982B91A392A180958923C7
:1029C00082A3789400C0EFE2F1E021E030E0A12C96
:1029D000B12C41914F3F81F0A42FA295AF70A05E22
:1029E000B0E08C9190E04F7002C0959587954A9524
:1029F000E2F7790180FF02C0E12CF12CAE28BF285C
:102A0000220F331F8E169F0621F7F60182918F3F0A
:102A100011F00E94130650EA5A95F1F7D801AD92D1
:102A2000BC920E5F1F4FBFE2CB16B1E0DB0609F090
:102A3000ADCF48E050E0B2018CE692E00E94312F29
:102A4000892BA9F088E0F201ACE6B2E001900D928A
:102A50008A95E1F781E08093D4010E941208909357
:102A6000D3018093D2012896E0E10C940F2F80913E
:102A7000D4018115C1F30091D2011091D3010E94BC
:102A80001208801B910B059770F348E050E06CE64C
:102A900072E08CE892E00E94312F892B49F088E0A7
:102AA000ECE6F2E0ACE8B2E001900D928A95E1F735
:102AB0001092D401D8CFA0E0B0E0E1E6F5E10C94AB
:102AC000FA2EEC0188818115F1F0813009F042C0C5
:102AD0008981813029F48A8123960E94C30DF2CF27
:102AE000823029F48A8123960E94DF0CEBCF833059
:102AF00029F48A8123960E94690DE4CF843041F045
:102B000022968111DFCFCDB7DEB7E9E00C94162F06
:102B10008A81239620E030E09AE0682F6053770B9B
:102B2000AB016A30710560F02115310551F3EFE911
:102B3000FFE03197F1F700C0000021503109F4CFD8
:102B4000929FB001939F700D11249A01260F371F99
:102B50008991E3CFE82FF0E0E155FE4FB490282FA4
:102B600026952695269530E0F901E156FE4FE49032
:102B70008770F12C082E02C0F594E7940A94E2F7CE
:102B8000E0FAEE24FF24E0F8F901E157FE4FC4908B
:102B9000D12C082E02C0D594C7940A94E2F7C0FA4B
:102BA000CC24DD24C0F8F901E158FE4F049110E077
:102BB00002C0159507958A95E2F701701127E11477
:102BC000F10419F081EE0E94DF0CC114D10419F058
:102BD00086EE0E94DF0C60E070E08B2D0E94A90D54
:102BE000C114D10419F086EE0E94690DE114F104BC
:102BF00019F081EE0E94690D0115110519F08CE2A2
:102C00000E94C30D21965ECFAFE0B0E0EAE0F6E1AE
:102C10000C94F12E7C01DC0114968C91811509F441
:102C200068C161E0C7010E943F0C8C01F7018581FA
:102C3000811531F180913B0490913C04009701F1A2
:102C400008171907E9F0FC01FF27887F9927892BCE
:102C500009F067C074E0EE0FFF1F7A95E1F7E554C5
:102C6000FC4F85818460858311830083CF010E949E
:102C7000FA111092550461E0C7010E943F0C8C01CB
:102C8000D70115968C91811509F4BEC0C8019757DC
:102C90008038910508F0EAC0D02EB0E10B1708F09B
:102CA00017C18FEF93E00E945E2F811111C10CEBD1
:102CB00012E0D11039C064E0662E9E012F5F3F4FB5
:102CC0005901D501E62D1D92EA95E9F74801FFEF7C
:102CD0008F1A9F0AC8010E945E2F8983811509F40B
:102CE000F7C0813009F08AC0680122E0C20ED11C11
:102CF000C4010E945E2F782E8A83811509F4E8C0F2
:102D00008FEF870D8330F0F4C6010E945E2F8B8316
:102D1000811519F0C5010E945B150D5F1F4F6801F9
:102D200071C0E0E0F0E09DCF0115E4E01E0709F47A
:102D3000CFC0C8010E945E2F0F5F1F4F8111F4CFDB
:102D4000DA94B7CF8BEF870D833060F5480143E00D
:102D5000840E911CC6010E945E2F8B83811509F49D
:102D600050C00C5F1F4F6801C4010E945E2F8C830E
:102D7000811509F447C08B819C818130AFEF9A07A0
:102D800010F0982F8827B6E07B1631F0E7E07E162A
:102D900031F00E94AF2536C00E94672533C00E94E3
:102DA0008B2530C0F4E07F122DC0C6010E945E2F3B
:102DB000982E680124E0C20ED11CC80103960E941F
:102DC0005E2F282F911409F483C0811509F480C067
:102DD0002150330B4FEF429FC001439F900D1124B0
:102DE000492D4150550B840F951F019758F0AFE9BD
:102DF000BFE01197F1F700C00000F7CFC5010E94B6
:102E00005B15640186015DCF6801E7E5DE1AC11438
:102E1000F1E0DF0658F56CE273E08C2D0E94E513BB
:102E2000892B21F5C60144E0880F991F4A95E1F7E7
:102E3000FC01E554FC4F22812130A1F520912C03A7
:102E400030912D03232B91F020912E0330912F03ED
:102E5000232B61F0209130033091310340913203F4
:102E600050913303242B352B232B21F1D7011596B9
:102E70002C90211409F441C00E35BCE71B0729F141
:102E80000F35ECE71E0741F00D35FCE71F07A9F5EC
:102E9000809110018115C9F01092100180E00E940C
:102EA000211216C0223011F72091300330913103E6
:102EB000232BE1F2FC01E054FC4F20812E7F208384
:102EC00085549C4F0E94FA11D1CF81E0809310016C
:102ED000809156048770811561F0D70115968C9109
:102EE000811539F080912F0582FF03C082E00E9496
:102EF000E9032F96E2E10C940D2F809110018111CE
:102F000048C0C80197558115914008F0DEC05801AE
:102F1000F8EFAF22BB24A114B104D1F6F801FF27CA
:102F200024E0EE0FFF1F2A95E1F79F0125543C4F47
:102F30006901D70115968C91E054FC4F908180FB7C
:102F400090F99083811509F4FEC10E9412089093B4
:102F50003E0480933D04F60182818F5F82838091DD
:102F6000550490915204892B83838091500484836B
:102F70004681578166857785C6010E945107D60133
:102F800015968C9181FF5801B0923C04A0923B04AD
:102F90009CC0280130EE431A5108309051048091B2
:102FA0005204382A80915004382A48E044165104CB
:102FB00008F05EC098012770332781E090E001C0DF
:102FC000880F2A95EAF7211409F44FC0382AD7014F
:102FD0008D919C910E948A0321E030E0F90102C0AA
:102FE000EE0FFF1F8A95E2F7FF87EE872091B1036E
:102FF0003091B203398728874091B9035091BA03C1
:103000005D874C8738E3C32E33E0D32EA12CB12C3F
:10301000311005C0D60112968C9181111BC0F601AA
:10302000838190E02E853F8582239323892B91F025
:103030008085982F9770911101C087E038E0431682
:10304000510408F0A8C0211409F4A1C0869581702C
:103050008111A6C0EFEFAE1ABE0AFFE0CF0ED11C61
:1030600028E0A216B104A1F61CC080953822AFCF8B
:1030700021107AC08091B9039091BA0308171907FB
:1030800081F41092BA031092B9031092B503109212
:10309000B6031092B7031092B8031092B4031092C3
:1030A000B3038091B1039091B203009709F429CF43
:1030B00038E04316510408F030C1632D0E943007F8
:1030C000811103C081E00E9421128091250580FFBB
:1030D000AAC10E9412083C01F7018581811509F4FB
:1030E000B4C18091110182FF06C040E0B30180E0CD
:1030F00090E00E944C110431FCE71F0709F4A1C1C4
:1031000005312CE7120709F43BC103313CE71307F3
:1031100009F47CC1C80190528115904308F03AC16E
:103120001092420410924104F7019581911509F41F
:103130000DC310924C04980130572332310508F02A
:1031400005C384E090E00E94662F90932F05809342
:103150002E05F801E150F047E232F10508F03CC2DB
:10316000EC53F04D0C94E42E1093BA030093B90382
:103170000E94B9086093B5037093B6038093B703B8
:103180009093B8031092B4031092B30320CF82FB44
:10319000882780F95DCF211409F45CCF80FF5ACFD6
:1031A000D6018D909C900815190519F4211409F485
:1031B00051CFE885F985EC15FD0509F44BCFD60113
:1031C0001D96ED91FC91309721F08081811509F4D5
:1031D00041CF632DC6010E943007811509F43ACF13
:1031E00081E00815190509F080E082218F838114A0
:1031F000910441F0811106C0EC85FD858E169F0675
:1032000009F028CF80E00E942112D092B203C09230
:10321000B10381E08093B0038FE08A9DF0018B9D24
:10322000F00D1124E85CFC4F8581809337032F81DA
:1032300021110EC08114910459F0808191819C016B
:1032400024503109213A310508F049C00E94E307B2
:103250008FE08A9DF0018B9DF00D1124E85CFC4FFE
:10326000C680D780C6019A9581159F4110F440EE23
:10327000D42299249394C60101978F339E4708F076
:10328000912C8FE08A9DD0018B9DB00D1124A85CFC
:10329000BC4F1996ED91FC911A97309731F01B961F
:1032A0006D917C9181E0099598229114A9F08FE0AD
:1032B0008A9DF0018B9DF00D1124E85CFC4F868106
:1032C00097810E94DA028093360388E04816510401
:1032D00048F4C6010E94C5080E946A0C0BC00E94F7
:1032E000690DB6CFC6010497813A910550F48C2D33
:1032F0000E94AF07BF81B11509F403CE0E946A0C8A
:10330000E7CD0E946A0CAFE3BCE91197F1F700C06A
:1033100000008C2D0E94DF0CEDCFDC012D913C9143
:103320000217130741F4211009C01092B00380E086
:103330000E942112E6CD211409F4E3CDFC01808521
:1033400085FDDFCDF4CFF901448555856685778508
:10335000C9010E945107D60115968C9181FFB5CE07
:10336000C6010E94DD1180913B0490913C04081736
:10337000190709F0AACE10923C0410923B04A5CE86
:1033800090911101892F8E7F90FF816080931101B0
:103390000E942D118091110180FF45C00832110556
:1033A00008F069C00E31110508F076C0C801049715
:1033B0004A9788F58091250584FD2DC0D701159683
:1033C0008C91811509F4D6C08091500490915204DB
:1033D000892B8D7F811509F464C0109242041092EC
:1033E00041048091250581FD5CC060E0C8010E9418
:1033F000CD0660E0C8010E94570D809150048D7F7A
:103400000E94A50882E00E94E90362CD809111012B
:10341000816080931101F7018581811521F010925F
:10342000420410924104D70115968C91F801E8519D
:10343000FC47E730F10508F077CEEA51F04D0C94E7
:10344000E42E809111018E7FA1CF809111018F7E9A
:10345000013E110531F0053E110531F48091110155
:103460008F7D8093110196CFC801905281159043B2
:1034700008F090CF59CE0933110558F40D321105DB
:1034800018F40B32110539F68091250582FDC3CF62
:1034900095CF04361105F7CF8091250583FDBBCF6D
:1034A0008DCF89E0F701A3E4B4E001900D928A95F5
:1034B000E1F71092460410924504809141049091E6
:1034C000420408171907C9F52091250525FF35C0C5
:1034D0003091110131FF02C026FF2FC020913F041F
:1034E000309140046301C21AD30A0E94FA13C8162D
:1034F000D90618F58091520481FF08C0809111010E
:1035000080618093110182E00E940B04809152043B
:1035100085FF08C08091110180628093110180E2D3
:103520000E940B04609111016695617080914104C5
:10353000909142040E94570DCBCC80915004D090C2
:103540005204D82AD1FADD24D0F88D7F0E94A50834
:1035500010934204009341047092400460923F042F
:10356000DD0C6894D2F890911101997FD92AD092FC
:10357000110148CF40E0B301C8010E944C11A8CC12
:1035800006E221EE41EE6AE17CE70E941814A0CC2D
:1035900007E225EE45EE6BE17CE7F7CF06E221EE90
:1035A00040EE68E17CE7F1CF07E225EE44EE69E109
:1035B0007CE7EBCF06E221EE42EE6CE17CE7E5CF63
:1035C00007E225EE46EE6DE17CE7DFCF08E221E081
:1035D00045EE6EE17CE7D9CF80912E058160809326
:1035E0002E0560912E0570912F0584E090E00E94D9
:1035F0009A2F0E94D00D6CCC80912F05886080930B
:103600002F05EFCF80912E058260E9CF80912E05A6
:103610008460E5CF80912E058860E1CF80912F05F1
:103620008160EDCF80912F058260E9CF80912E05DA
:103630008061D5CF80912E058062D1CF80912E05FB
:103640008064CDCF0E94D00D80912E058068C7CFB9
:1036500080912E058C60C3CF80912F058360CFCFE2
:1036600080912E058E7FBBCF80912F05877FC7CF9E
:1036700080912E058D7FB3CF80912E058B7FAFCFAC
:1036800080912E05877FABCF80912F058E7FB7CF9E
:1036900080912F058D7FB3CF80912E058F7E9FCF98
:1036A00080912E058F7D9BCF80912E058F7B97CFAC
:1036B0000E94D00D80912E058F7791CF80912E059D
:1036C000837F8DCF80912F058C7F99CF80912E05A0
:1036D000992782FF939590FB82F990FB83F97FCF26
:1036E00080912F05982F909590FB80F990FB81F9A0
:1036F00086CF90912E05892F8F7B96FF80646FCFA8
:103700000E94D00D90912E05892F97FB87F9805844
:1037100066CF61E08EE090E00E947C2F62CF60E097
:10372000F9CF90912E05892F8F7E94FF806157CF1E
:1037300090912E05892F8E7F90FF816050CF9091C0
:103740002F05892F877F93FF886059CF0631FCE7CB
:103750001F07C1F5809152043091240530FF04C049
:10376000282F2474211122C0282F2A7A31FF04C067
:10377000482F4171411120E032FF04C0482F4878A2
:10378000411120E033FF03C08272811120E09115C6
:1037900079F081E0211101C080E080934D0485E340
:1037A000211101C089E20E94AF07A8CD20E0DECF41
:1037B00080914D04811521F085E30E94E3079ECDA1
:1037C00089E2FBCF07372CE71207F9F008373CE70F
:1037D000130731F19801205E32452032310528F57A
:1037E00091113BC00F7181E090E0AC0102C0440F29
:1037F000551F0A95E2F78A01642F83E090E00E944A
:103800007C2F802F0E94320363CB81E0911551F011
:103810000E94380343E062E081E00E94BE0358CB7F
:1038200082E0F4CF0E944403F5CF9115B1F00A3540
:103830005CE7150709F49FC008F076C001309CE7EB
:10384000190709F496C00330ACE71A0709F48BC0D6
:103850000115BCE71B0709F479C0F7018781908542
:10386000009709F48CC00E940E05082FD92E86E01F
:10387000F701DE01119601900D928A95E1F7F701AB
:10388000B580C680C2949FE0C9228091560487709B
:10389000811501F19B2CB114F1F08D2D807F8034C6
:1038A00061F080E2800F8830A8F08D2D807E80321C
:1038B00021F4023078F0C11469F080912F0582FF65
:1038C00009C082E00E94E903809156048770992420
:1038D00093948111912CAD2CA2948FE0A822F8E052
:1038E000AF1609F48FC129E0A21608F096C034E0A3
:1038F000A31608F05BC01D2D1F7042E0A41608F44B
:103900009FC08D2D807F803211F01295107F0115A0
:1039100009F4CDC0013009F437C1B11409F443C131
:10392000C11409F4DEC0A0C00B35ECE71E0729F175
:1039300080912F05002482FF0394802D0C35FCE735
:103940001F0709F08ACF0E94DA0A87CF0E94D00DA4
:103950002FEF34E34CE0215030404040E1F700C00D
:1039600000000E9408096FEF7FEF80E090E00E9466
:103970009A2F0E94F20D81E0E6CF80E0E4CF8581AE
:10398000C080D180811569F0C6010E94D30B182F29
:10399000682FC6010E945403B601812F0E94B60B06
:1039A00062CFC6010E948A03182FF6CF54E0A516F5
:1039B00009F40BC1AA2DA850BB0B149718F40E9450
:1039C0005607912C802F9D2D0E940E03811541F0EA
:1039D000B11409F41FC2C11409F413C210923205C4
:1039E0009114B1F08091560480FD12C0D701159654
:1039F0001C928695869586950E943803C7010E9481
:103A00000416809156048695869586950E944403F7
:103A100060E0C7010E943F0C6CCA89E0A81609F457
:103A200061C186E08A0D8F70823020F6023F09F076
:103A300069C18D2D8F71B11062C10E943803BACF58
:103A400090E1D91610F01295107FB114B9F011154C
:103A500059F080E2800F883010F0011109C0812FE9
:103A60000E9405040E946A0C802F0E94DF0CA2CFE6
:103A700080915504812B80935504F4CF802F0E94B0
:103A8000690D111509F496CF80E2800F883010F08F
:103A9000011104C0812F0E940B0406C01095809173
:103AA00055048123809355040E946A0C83CF809132
:103AB0002F0582FD12C0B11449F0111529F0812F94
:103AC0000E9405040E946A0C80E0CFCF80E00E9433
:103AD000690D111509F46ECFDDCFB11491F1C1104C
:103AE00004C0812F0E94BC0C65CFB1E0CB1211C085
:103AF00080905004812F8821181709F45BCF0E9411
:103B0000120890934F0480934E04812A80925004AF
:103B100051CF80912605823008F44CCFC8124ACF8D
:103B2000812F0E94BC0C812F0E948F08809151042C
:103B3000912F9823191709F43DCF812B80935104BD
:103B400039CFC11012C0812F0E94CD0C812F0E944D
:103B50008F0880915104912F9823911509F42ACF51
:103B6000109518231093510425CF8091260582309B
:103B700008F420CFE1E0CE121DCF809152048123C2
:103B8000811509F417CFDFCF80912C05B11421F0F6
:103B90008C1508F40FCFA5CFC81608F00BCF812FD6
:103BA0000E94CD0C07CFC114D1F380912A059091CA
:103BB0002B05093321F080912805909129050E9459
:103BC0006D0A802F0E94690DF5CE8D2D8695869504
:103BD0008370811569F0813009F0ECCE802F9D2D26
:103BE0009370B11002C080E090E00E948907E2CE9D
:103BF000802F9D2D9370B11002C080E090E00E9454
:103C00006307D8CE8D2D8370811133C0B110D2CE11
:103C1000402F429546954770440F440F802F8F7078
:103C2000042E01C0880F0A94EAF7202F207104FFA8
:103C300007C02FE030E001C0220F4A95EAF7209537
:103C40003D2D369536953370323071F0333051F06A
:103C500040910805313029F0822B84230E943203E1
:103C6000A9CE842B822BFACF822B9091080589272D
:103C7000F5CFB11459F1D0FE9DCE402F4295469517
:103C80004770440F440F802F8F70042E01C0880F9F
:103C90000A94EAF7202F207104FF07C02FE030E0DC
:103CA00001C0220F4A95EAF720953D2D36953695AD
:103CB0003370323091F0333071F04091090531307A
:103CC00049F0822B84230E94350374CE823008F49D
:103CD00071CED3CF842B822BF6CF822B9091090506
:103CE0008927F1CF1D2D1F70B11429F0812F0E945B
:103CF0003803802FF7CE802F0E94CD0C812F0E9499
:103D0000440358CE60F4003FB9F0013F81F0B11494
:103D100009F472C0C110A8CE8D2D8F718ECE033FD5
:103D2000F9F0043FA1F780912F0582FD25C08D2D6C
:103D30008F71B11421F381CE80912C05B11461F003
:103D4000C81608F037CE2D2D2F7181E090E001C00C
:103D5000880F2A95EAF7C2CF8C1508F42BCEF3CF43
:103D600080E0B11409F4AFCF81E09D2D9F7101C0B7
:103D7000880F9A95EAF7A7CF80912605823048F1FF
:103D8000B114C9F0909156049770943059F4109280
:103D9000560410925804109257048D2D8F710E9472
:103DA00044030DCE63E0C81608F009CE8D2D8F7147
:103DB0000E94770804CEC81640F010925604109264
:103DC00058041092570464E0F1CF81E00E94E903A7
:103DD000F6CDB11431F063E08D2D8F710E9477081C
:103DE000E9CD81E00E94E903F2E0CF1608F4E2CDCC
:103DF00082E00E94E903DECDC110D7CE8D2D8F71F8
:103E00007ECF809154048093530480915204809318
:103E10005404E6CD40E060E089819A810E94210C43
:103E20008A879B8710915204C11429F010923205A1
:103E300010935404D5CD80913005909131052A8599
:103E40003B8528173907A1F78091270583FFEECF1F
:103E500080913205811551F3809153040E94BC0C6E
:103E6000802F0E94C30D809153040E94CD0CDECFA1
:103E7000A0E0B0E0EEE3FFE10C94FC2E809117038C
:103E8000803108F049C080911603811509F444C0BF
:103E9000C091C80289E0D82E8091C7028C17E1F149
:103EA000EC2EF12CDC9EE0011124FE01E753FD4FC6
:103EB00084818115B1F1918180911203981331C0F1
:103EC00090818091110398132CC08581811129C0A4
:103ED000028113818091130390911403081B190B25
:103EE00060E081E193E00E943F0C0E94FA13081702
:103EF0001907B8F4809117038F70806180931703BE
:103F0000C153DD4F88818F708061888381E193E0A8
:103F10000E9404160E94DF03CDB7DEB7E7E00C94E1
:103F2000182FE7012196C770B7CFAFE0B0E0EBE9FB
:103F3000FFE10C94F42E8C0186E0F801DE011A9664
:103F400001900D928A95E1F7D80115966C9015971E
:103F500014965C9081E1A82E83E0B82E8091150321
:103F6000811118C0511499F0611409F4CBC1C80132
:103F70000E940D0C811509F4C5C189E0F801A1E189
:103F8000B3E001900D928A95E1F70E94381FFF245B
:103F9000F39451C0F801C0807180E280F38060E04A
:103FA00081E193E00E943F0CD090160380911303AF
:103FB000909114034701881A990A60E081E193E027
:103FC000D11409F444C10E943F0C0E94FA138816D0
:103FD000990608F0F7C05114D1F280911203D8016C
:103FE00011969C91B0901703B0E1BB1608F0A1C0E8
:103FF000F62C981325C090911103F8018081981335
:104000001FC02091180330911903878190852817CC
:104010003907B1F4611078C08B2D8F708061809367
:10402000170381E193E00E94041680911703D801E1
:1040300016968C93F12C8F2D2F96EFE00C94102F69
:10404000611062C0E091C8028091C702AE2F99E072
:10405000A81302C099E02AC02A2F30E09A9FD0010D
:104060001124A753BD4F11964C911197741207C09C
:104070004C91C41204C015964C9141114DC1D90107
:104080001196A770E5CF2E2F30E09E9FF0011124EE
:10409000E753FD4F4181741206C04081C41203C032
:1040A00045814111C7CFF9013196E7708E13EBCFEF
:1040B0008A859B850E94FE0B292F22952F709034B4
:1040C00048F02A5F2F702230C8F0C8010E94041601
:1040D000FD2CB1CF9F70223038F0911551F0F801CE
:1040E0009681903130F4A7CF911519F0811509F41C
:1040F000A2CF805E883008F49ECFE7CF803F08F4DF
:104100009ACF815F8330F7CF8091170381608093CE
:1041100017038091270581FD8DCF81E193E00E94F7
:10412000041689E0E1E1F3E0DF011D928A95E9F7E9
:1041300081CF981321C090911103D8018C919813CD
:104140001BC0209118033091190317968D919C91F3
:1041500018972817390781F461100EC01696BC9283
:10416000C8010E94041689E0F801A1E1B3E00190C2
:104170000D928A95E1F70BCFC8010E940D0C8115B5
:1041800009F4C0C0611409F4BDC0809117038032E6
:1041900008F4F3CE80911103909112039A838983DE
:1041A000FC82EB82809115038D831E82BF828091F9
:1041B00018039091190399878887CE0101960E9470
:1041C0000416DBCED0901703B0E1DB1608F4A5CFC0
:1041D000511409F4DCCE90911203F80181819813F7
:1041E0001AC0909111038081981315C02091180373
:1041F00030911903878190852817390761F4611080
:104200000AC0D682C8010E94041689E0D5011D9219
:104210008A95E9F7BCCEC8010E940D0C811509F4FE
:1042200071C0611409F46EC080911703803208F4E4
:10423000A4CE80911103909112039A838983FC820A
:10424000EB82809115038D831E82DF82B0CF0E94A6
:104250003F0C0E94FA138816990608F057C05114B3
:1042600009F495CE611409F44DC090911203F80140
:10427000818198133DC0909111038081981338C0BB
:1042800020911803309119038781908528173907E9
:1042900079F5C0901303D090140360E081E193E0BE
:1042A0000E943F0C8091270582FD5DCFEC18FD0830
:1042B0008091220590912305E816F90608F053CF66
:1042C0008091170380FD4FCF803108F44CCFD80187
:1042D00016968C931697982F907F903F09F440CFB5
:1042E000982F907F905F8F70892B16968C9338CF84
:1042F000C8010E940D0C811140CE8091170381608E
:1043000080931703C8010E94041641CE89E0F5018D
:1043100011928A95E9F78ECE9091270590FF9ACE5B
:10432000FCCEA2E1B0E0E7E9F1E20C94FF2E0A87AF
:104330001B872C873D874E875F87688B798B8A8B9D
:10434000CE010A960E94951F811128C02091C702B4
:104350003091C80289E0FE013A96DE011196019083
:104360000D928A95E1F78E858115C1F0822F90E03C
:1043700001968770992738171906D9F099E0929F0E
:10438000D0011124A753BD4FFE01319601900D922B
:104390009A95E1F78093C7020E94DF0319E08091AC
:1043A000C8029091C702891312C06296E4E00C948F
:1043B0001B2F0E94D00D1092C7021092C80289E0F4
:1043C000E1E1F3E0DF011D928A95E9F7E7CF189F5D
:1043D000C001112487539D4F0E94951F811529F319
:1043E0008091C80290E00196877099278093C80257
:1043F000D6CFEF92FF920F931F93CF93DF938091CD
:104400000505E091F201CDE0811131C0CDB7DEB7F5
:10441000E6E00C94192FD1E0DE0FD093F201EE2EDE
:10442000F12CCE9FF0011124E356FB4F84818115BE
:10443000E9F087819085892B21F481859285019609
:1044400059F4008111812281338144815581668133
:10445000778180850E949121CE9DF001CF9DF00D46
:104460001124E356FB4F148210925504ED2F8091D6
:104470000505E81780F2109205051092F201C6CFEB
:10448000A4E0B0E0E6E4F2E20C94F22E20919C0469
:10449000298397E0992EEE24E394F12C3DE0332E0E
:1044A00044E0542E6624639480919B04998189137F
:1044B00008C00E94F9210E94F3062496E1E10C94C1
:1044C0000E2F7981672F70E07C836B83FB01EE0FE9
:1044D000FF1FEF56FB4F80819181989ED001999EDE
:1044E000B00D1124FD01E75AFB4FFA83E9832481C3
:1044F00021115BC070900505EDE9F4E040E050E06B
:10450000812C471508F04FC0A384B484A981BA81D7
:10451000CD90DC900FEF1FEF412C242D30E0B60141
:10452000640D711D640D711DDB016D917C91611530
:10453000710539F0A616B70609F098014394890170
:10454000ECCF0F3F1007D1F1B701002E01C0660F6D
:104550000A94EAF7862AB701042C02C0660F771F77
:104560000A94E2F79B01215031098216130629F5BE
:10457000349EF001359EF00D1124E356FB4F989EBA
:10458000D001999EB00D1124A75ABB4F12962D91C0
:104590003C9113973087278354821082118292872F
:1045A000818715966C920E9404078B819C810196ED
:1045B0009A8389838370898377CF14824F5F5F4F9B
:1045C0003D969FCF1092070510920605109212019A
:1045D00080919B0480939C040E94F3060E94F92121
:1045E0000895AEE1B0E0E7EFF2E20C94F12E4B8BD0
:1045F0005C8B6D8B7E8B8F8B692F988F192F81151C
:1046000009F475C040E08B899C890E94210C7C01D3
:10461000111549F0109232059093310580933005C1
:10462000109255040AC080913005909131058E1585
:104630009F0519F481E080933205188A198A1A8A35
:1046400086E0FE017396DE011A9601900D928A951E
:10465000E1F780912F0582FF21C080910C05909198
:104660000D05892BD9F00E94120820915704309132
:104670005804821B930B20910C0530910D05821775
:10468000930738F08091560482FD03C082E00E94B7
:10469000E9030E941E0881110E9413048E85811572
:1046A000D1F061E0CE010A960E943F0C61E0CE019C
:1046B0000A960E943F0C61E0CE010A960E943F0CD0
:1046C0006C0180352CE79207B1F48F85811541F19B
:1046D00081E0809312010A851B852C853D854E85DE
:1046E0005F85688979898A890E949121D6C0911550
:1046F00009F4A3CF95CF81354CE7940731F48F852A
:10470000811571F00E94E222E6CF82359C4741F488
:104710008F85811529F0809112018111F3CFD8CFB7
:10472000E9E5EE2EE4E0FE2E512CA12CB12C4F84B5
:10473000D7016D917C9122242A9433243A9480E00D
:10474000282F30E0FB01E80FF11DE80FF11D40813B
:1047500051814115510539F0C416D50609F0910172
:104760008F5F1901EDCF10E0BFEF2B163B0609F468
:1047700052C0F701448110911201411110E0D7019C
:1047800015967C90159716962C911697411409F45E
:1047900009C1111509F406C18090200590902105EA
:1047A000711015C041E050E0022C01C0440F0A9482
:1047B000EAF7242B16962C932091990430919A04B1
:1047C0002815390520F490929A048092990421E0EA
:1047D00030E0F90102C0EE0FFF1F8A95E2F7CF012A
:1047E0000197D70116962C9128171906A1F460900D
:1047F0000605709007056114710409F452C00E9407
:104800001208861997098816990608F04AC081E0AF
:10481000F701848311E0512AFFEFAF1ABF0A27E0A6
:10482000E20EF11C48E0A416B10409F080CF411457
:1048300009F414C1511409F411C10E941208909393
:1048400007058093060580910505883030F591E0D5
:10485000980F9093050599E0FE013A96DE011196B6
:1048600001900D929A95E1F75DE0859FC0011124BA
:1048700083569B4F29E0FE013196DC0101900D9299
:104880002A95E1F72FEF3FEFDC011A963C932E9328
:1048900019971C96DC92CE921B976E96E2E10C94CF
:1048A0000D2F20919C0480919B04922FE0E0F0E07A
:1048B00037E061E0281709F448C0422F50E0DA01E0
:1048C000AA0FBB1FAF56BB4F8D909C909A8E898EBE
:1048D000389DD001399DB00D1124A75ABB4F8D9042
:1048E0009C909E8E8D8E812C70E0912CAD8DBE8D16
:1048F000A90DB11DA90DB11D6D907C9061147104BD
:10490000E1F0D7010D90BC91A02DBC8FAB8F70E072
:1049100007C001E06A167B0609F000E0802A7F5F8D
:10492000AB8DBC8DA70FB11DA70FB11D0D90BC9114
:10493000A02D109771F79394D9CF811481F1791537
:10494000C0F421E0F7012483F70190939C04EE1555
:10495000FF0509F460CF90E0FC01EE0FFF1FEF565A
:10496000FB4FB182A08201968370992780939B04AC
:1049700052CF898C9A8C389DF001399DF00D11240D
:10498000E75AFB4F6483EE15FF05F1F2291302C0CD
:104990009F5F93704F5F5F4F242F23708BCFE0E0BA
:1049A000F0E0F8CF30E0711021C061E070E002C0AB
:1049B000660F771F8A95E2F7CB0101972817390711
:1049C00079F010E081E090E0022C01C0880F0A9499
:1049D000EAF7982F9095F7018681892386831BCF6C
:1049E000411581F3C5010E940407EBCFA901022CF8
:1049F00002C0559547950A94E2F7C90101978223B1
:104A00009323892B41F540FF26C0D70112968D9143
:104A10009C91892BD9F087E0FE013196DF011D9230
:104A20008A95E9F70E9412089C018B839C8384E09D
:104A30008D83F70192818381792F988789870981F6
:104A40001A8144E05E816F810E949121D701159601
:104A50001C92172DB7CF142F1170B4CF90919C04D6
:104A600080919B04981739F00E944022B1E05B16B8
:104A700009F413CF30CE0E94F9211092070510924D
:104A800006050E94F306F2CFA6E0B0E0EAE4F5E204
:104A90000C94FF2E0E9412088C0180919B02909131
:104AA0009C028017910779F019821A820E941208DD
:104AB000BC0149815A8180E090E00E94F12210936C
:104AC0009C0200939B022696E4E00C941B2FA6E028
:104AD000B0E0EDE6F5E20C94012F9C019093980272
:104AE00080939702211580E2380738F4C9010E94AB
:104AF000410D2696E2E00C941D2F80EF89838A8376
:104B00000E9412088160BC0149815A8181E091E0D4
:104B10000E94F122EECFA6E0B0E0E1E9F5E20C94CC
:104B2000012F9C019093980280939702211580E2B7
:104B3000380738F4C9010E94930D2696E2E00C94E0
:104B40001D2F80EF89838A830E9412088160BC0137
:104B500049815A8181E090E00E94F122EECFCF930B
:104B6000DF93D82FC92F0E94672580912805909147
:104B700029050E946D0A8D2F9C2F0E948B25DF91A5
:104B8000CF9108950F931F93CF93DF938C01862FBE
:104B90006CE273E00E94E513892BA9F4C0912C0309
:104BA000D0912D03209779F0F8018281833051F460
:104BB000CE010E94AF25CE010E94AF25CE010E94FA
:104BC000AF2501C0D8F7DF91CF911F910F910895C4
:104BD0000F931F93CF93DF938C01EB016CE273E093
:104BE0008C2F0E94E513892B09F05AC0FE01FF2784
:104BF000D80112968C911297EC59FD4F8130A9F48F
:104C000015968C9182FD51C080FF4FC082E0808359
:104C100080912E0390912F030097B9F480912C037B
:104C200090912D030097E1F110C08230B9F51596EF
:104C30008C9182FD28C080FD0BC083E08083809131
:104C4000300390913103009701F10E94672528C03D
:104C500084E0808380913203909133030097A9F719
:104C600080912C0390912D03009711F10E94AF25A4
:104C700080912E0390912F03009739F780912C0398
:104C800090912D03E2CF85E0808380912C03909159
:104C90002D03009729F00E94AF25F0CF86E0808396
:104CA000DF91CF911F910F91089581E08083B6CF5E
:104CB00080912E0390912F03B5CF0F931F93CF9325
:104CC000DF938C01EB016CE273E08C2F0E94E51303
:104CD000892BA1F480912805909129050E946D0AE5
:104CE000DD27CC59DD4F8881F8011282188283308C
:104CF000F1F048F4813059F0823081F0DF91CF91AA
:104D00001F910F9108958430B9F08530B9F78091E3
:104D10002C0390912D03009789F306C080912E03F8
:104D200090912F03009799F30E948B25E7CF8091F4
:104D3000300390913103F6CF809132039091330389
:104D4000009791F720912C0330912D0380912E0331
:104D500090912F0321153105F1F2009729F7C90130
:104D6000E3CFCDB7DEB7AC970FB6F894DEBF0FBE7A
:104D7000CDBF85B7806885BF85B7806885BF84B79C
:104D8000877F84BF0FB6F894A895809160008861F2
:104D900080936000109260000FBE80E890E00FB634
:104DA000F89480936100909361000FBE81E080933E
:104DB0000F0181E196E09093A9018093A8010E94E0
:104DC0003B060E9422130E9466130E94610B0E9400
:104DD000C3090E94120A8091E20084608093E2007D
:104DE000789480919602811599F08091E900109154
:104DF000EC008F70179511271795182B1092E9006A
:104E00008091E80083FD0E945D0E1F701093E90001
:104E100082E084BD93E095BD9AEF97BD80936E00CC
:104E20000E94510C811102C00E94121384E30E945F
:104E3000130685E30E94130682E30E94130686E3AD
:104E40000E9413060FE211E0D8018D918D018F3F72
:104E500011F00E941306B1E00B331B07A9F788E09D
:104E6000ECE8F2E0DF01282F1D922A95E9F7ECE645
:104E7000F2E0DF011D928A95E9F780E090E00E9460
:104E8000662F853E9E4F21F40E94510C811163C014
:104E900065EE7EEF80E090E00E949A2F60E082E075
:104EA00090E00E947C2F81E08093080561E083E020
:104EB00090E00E947C2F60E074E184E090E00E942A
:104EC0009A2F60E086E090E00E947C2F60E087E00F
:104ED00090E00E947C2F40E050E0BA0188E090E032
:104EE0000E948E2F60E083E290E00E947C2F60E0C1
:104EF0008CE090E00E947C2F60E08DE090E00E94CA
:104F00007C2F19821A821B821C821D821E821F82A4
:104F1000188648E050E067E170E0CE0101960E94FB
:104F20006C2F40E050E0BA018FE190E00E948E2F9C
:104F300080E00E94280B0E94121340E050E0BA016A
:104F40008FE090E00E948E2F40E050E0BA0183E1B4
:104F500090E00E948E2F82E090E00E945E2F80936E
:104F6000760284E090E00E94662F90932F05809354
:104F70002E050E94AC14EFEFF6E721E0E150F0407F
:104F80002040E1F700C000000E94AC1480918C0228
:104F900080FF08C06FEF7FEF80E090E00E949A2FC3
:104FA0000E94080983E090E00E945E2F0E94320375
:104FB00080E091E09093BE028093BD0280919602C2
:104FC000853049F480919602853009F460C00E94D2
:104FD000D00D0E9456070E94AC14A7E7AA2EA2E0AB
:104FE000BA2E0CE812E0D801F501219131918D9192
:104FF0009D9142E0EF37F40709F480C02817390784
:10500000A1F3FCE86F2EF2E07F2E912CD301ED90FE
:10501000FD903D01F501819191915F018E159F05F4
:1050200079F19C012E253F253CA72BA7812CCC2470
:10503000C394D12C8BA59CA58C219D21892BB9F0E3
:1050400089829A820E9412089C838B8331E03D837F
:1050500091E097012C213D21232B09F490E09E83C0
:1050600049815A816B817C818D810E94F1228394D8
:10507000CC0CDD1C4CE08412DDCFF501F292E29203
:10508000939484E09812C2CF0E94B9083DC08091E9
:105090009602843021F11092740288E190E0A0E43D
:1050A0000FB6F894A895809360000FBEA09360009F
:1050B00083B7817F846083BF83B7816083BF789427
:1050C000889583B78E7F83BF0FB6F894A89580919B
:1050D0006000886180936000109260000FBE0E94A3
:1050E000AC14ECE8F2E081919191892B09F0A3C412
:1050F00024E932E02E173F07B1F764CF28173907AC
:1051000009F07FCF0E944425E090B303F090B403F0
:10511000E114F10491F18090830290908402A090B8
:105120008502B09086020E94B908681979098A0937
:105130009B0980907F0290908002A0908102B090A5
:105140008202681579058A059B05B8F0C7010E949F
:10515000410D1092B4031092B30310928302109287
:105160008402109285021092860210927F021092A1
:1051700080021092810210928202C0903B04D09073
:105180003C04C114D10439F1A0903D04B0903E0418
:105190000E9412087C01EA18FB08C6010E94FA135B
:1051A0008E159F05C0F420913B0430913C04C90149
:1051B0009927287F3327232B09F098C064E0880FB4
:1051C000991F6A95E1F785549C4FDC0115962C9147
:1051D00022FF0E94FA1180911201811519F1E090CD
:1051E0000605F0900705E114F104E1F00E941208B1
:1051F0008E199F092091990430919A042817390734
:1052000088F490919C0480919B04981709F471C0D4
:105210000E94402210929A0410929904109207055D
:10522000109206058091250580FF1DC08091110117
:1052300082FF19C00E9412081C0180913F049091C6
:1052400040049101281B390B80910A0190910B01B8
:105250002817390740F041E0B10180914104909155
:1052600042040E944C110E945607909187028917B0
:1052700021F0809387020E94B908809196028430C1
:1052800009F09CCE83E08093E9008091E80082FFE2
:1052900095CE8091E80090E085FF05C00E949209BC
:1052A000811581F191E08091E8008B778093E8008F
:1052B000911509F483CEE0909902F0909A02E98169
:1052C000E114F104E9F1EE3F09F05EC08A81833018
:1052D00020F08550833008F057C0EA81EE3008F0A6
:1052E00053C0F0E0E351F04D0C94E42E80E090E0E8
:1052F0006CCF0E94F92110920705109206050E94BA
:10530000F30690CF50E2E52EF12CFE0131966F01AD
:105310008091E80085FD0AC08091E8008B7780933A
:10532000E8000E949209811599F3BCCF8091F100A9
:10533000D6018D936D01B1E0EB1AF10849F7B2CFB8
:10534000E43150F4E11559F0E150E33140F4F0E07C
:10535000E550F04D0C94E42EEE3F09F4BECF8FEFF4
:1053600096C31A8289E08B830FC08A818230A9F0AC
:105370008330E1F0813099F70E94B9080E94EA2E4B
:105380006B837C838D839E8340E250E0BE016F5F20
:105390007F4F82E00E947B0A11CE87E290E00E945C
:1053A0005E2F1B821C821D828E83EECF8091940221
:1053B00090919502892B41F3FE01319684E992E0A8
:1053C000D8012C9111963C910E5F1F4F328323839D
:1053D000329680179107A1F7D7CF8A81823009F0E2
:1053E000BECF6B817C818D819E810E94EA2E87E2F7
:1053F00090E00E947C2FC8CF4C816B818A810E94F3
:10540000870B9827892798279E838D83BDCF2D8171
:105410003E813227232732274C816B818A810E946B
:10542000F10AB2CF0E948012AFCF80E18A83ACCF65
:1054300081E08A8384E497CF8C81E82EF12C8D3132
:1054400008F0A2CF0A811B81102701271027E00E48
:10545000F11E6E01B5E0CB0ED11C0E151F0509F42F
:1054600093CF80E00434E1E01E0728F4C80184549F
:105470009D4F0E945E2FD6018D936D010F5F1F4FD0
:10548000ECCF8091940290919502892B09F47CCF06
:105490008C81C82ED12C8D3108F076CF0A811B81EA
:1054A000102701271027FE0131967F01CE0EDF1E47
:1054B000EC14FD0409F468CF0434F1E01F0740F454
:1054C000D70114966C91C80184549D4F0E947C2F83
:1054D0000F5F1F4FBFEFEB1AFB0AEACF0E94180BBA
:1054E00053CF84E0A3CF8C81E82EF12C8D3108F0CE
:1054F0004BCF0A811B81102701271027E00EF11ED8
:105500006E01E5E0CE0ED11C0E151F0509F43CCF4F
:1055100080E00038F1E01F0720F4C80188960E945F
:105520005E2FD6018D936D010F5F1F4FEDCF8C81E4
:10553000E82EF12C8D3108F027CF0A811B8110272E
:10554000012710270038B1E01B0708F01DCF80E8C5
:1055500091E0801B910B8E159F0508F415CF80916B
:10556000940290919502892BE1F54801E8E28E0EB4
:10557000911C00FBCC24DD24C0F800FF0DC0C80145
:1055800087960E945E2F9D818927982789278115FC
:105590009C4711F48FEF8D83C8018E0D9F1D57011D
:1055A00080FF17C021E0A21AB10845E0642E712CDB
:1055B0006C0E7D1E6A0C7B1CC4018E0D9F1D0E940B
:1055C0005E2FD3019C9181159C4719F48FEFF30155
:1055D0008083FE013196EC0DFD1D2FEFCA14DB0414
:1055E00030F0FE0131966F01EE0EFF1E1CC094815B
:1055F000858181159C4711F42483258342E0C40EE4
:10560000D11C3296EBCF003881E0180738F4D60170
:1056100014966C91C80188960E947C2F0F5F1F4FD3
:10562000BFEFCB1ADB0AEC14FD0469F7ADCE809115
:10563000940290919502892B09F4A6CE40E250E0A5
:10564000BE016F5F7F4F82E00E947B0AFFEF21EE79
:1056500034E0F15020403040E1F700C00000A0CC21
:1056600088E0E3E1F1E0DE01919601900D928A95E8
:10567000E1F7FE0132968FE1DF011D928A95E9F78D
:1056800086E0898388E07F96DE01159601900D9271
:105690008A95E1F779CE84ED89831A821B821C8278
:1056A00073CE8B819C81092E000CAA0BBB0B35E0BD
:1056B000880F991FAA1FBB1F3A95D1F7AC01BD01F6
:1056C000405E5F4F6F4F7F4F481759076A077B0750
:1056D00008F45ACE843D9105A105B10508F054CED9
:1056E000453D51056105710520F044ED50E060E055
:1056F00070E0481B590BBC016E557B4FCE010196E3
:105700000E94282F41CE4AE150E06FEF70E0CE01B9
:1057100007960E94472F809194028983EA821B8218
:105720001C821D828BE040CE81E090E090939A0233
:105730008093990282E390E090938B0280938A0297
:105740000E94120890938902809388021DCEE11472
:10575000F10481F1D0908C02C0908D0200918802FA
:10576000109189020E941208801B910B85369105C9
:1057700040F1C3FE26C0D0FE24C00E9412089093C0
:1057800089028093880280918A0290918B0201970E
:1057900090938B0280938A02892B61F410929A0273
:1057A0001092990281E090E0909395028093940288
:1057B000E12CF12C809194028983EA8280918A0203
:1057C000D2CD82E390E090938B0280938A02F2CF55
:1057D0001092950210929402D7CD0B811C8140E269
:1057E00050E06FEF70E0CE0101960E94472F22E15A
:1057F00034E042E050E080E090E0F901659174917E
:105800000617170740F4FE0131968E0F9F1FDC012B
:105810006D937C93CA01B4E026393B0709F4B4CDFB
:10582000AC014E5F5F4F245F3F4F4132510528F37B
:10583000ABCD2B813C8182E194E0FC0145915491F8
:105840004217530709F414C10C96E4E0823A9E070C
:10585000A1F785CD8B819C8102E114E0F8012591AF
:1058600034918217930709F414C1045F1F4FF4E0C9
:10587000023A1F0799F744244A94542C25C10E94E8
:105880002A0E82CDEB81E73008F07ECDF0E0E25FBA
:10589000FF4C0C94E42EFE0134968DE1DF011D9245
:1058A0008A95E9F788E089838A835DCD8C819AE0C7
:1058B000F92E8E010F5D1F4FF8012F2D11922A95A1
:1058C000E9F7B8010E94E5138983F801DE01129619
:1058D00001900D92FA94E1F757CD1C818AE0FE0108
:1058E0003596DE01919601900D928A95E1F789A196
:1058F0009AA10E942C069AA389A38BA19CA10E9425
:105900002C069CA38BA38DA19EA10E942C069EA376
:105910008DA38FA198A50E942C0698A78FA38FEF27
:10592000183068F43AE0139FB001112464537E4F9D
:105930004AE050E0CE0181960E94A02F80E089834A
:105940000E943B0621CD2C816AE0CE018196DC01CC
:10595000E62F1D92EA95E9F7283008F046C0629FCD
:10596000B0011124645E7D4F4AE050E00E944E2F4A
:1059700080E089838AE0FE01B196DE01129686CE30
:105980001C818AE0FE013596DE01919601900D9210
:105990008A95E1F789A59AA50E942C069AA789A75E
:1059A0008FEF183068F4FAE01F9FB0011124645E95
:1059B0007D4F4AE050E0CE0181960E94A02F80E00A
:1059C00089830E942213E0CC2C816AE0CE0181966B
:1059D000DC01E62F1D92EA95E9F7283030F4629F4A
:1059E000B001112464597D4FBFCF8FEFC2CF1C810E
:1059F0008AE0FE013596DE01919601900D928A951E
:105A0000E1F78BA19CA10E942C069CA38BA38FEF96
:105A1000183068F4FAE01F9FB001112464597D4FDB
:105A20004AE050E0CE0181960E94A02F80E0898359
:105A30000E946613A9CC80917502811509F4C2CA2F
:105A400030E139BD42E149BD09B400FEFDCF80918E
:105A5000D8008F7D8093D8008091E0008260809391
:105A6000E0008091E00081FDFCCF0E94D00DAACA29
:105A7000FC013696259134912115310509F46FCC3E
:105A80004FE150E0BE016E5F7F4FF90109958983B8
:105A90007BCCF8013896259134912115310509F414
:105AA000EACE4CE150E0BE016B5F7F4FC801F901C7
:105AB00009952C01892B41F4F8013A96859194912E
:105AC000009711F0FC01099549825ECC1F921FB628
:105AD0001F9211248F939F93AF93BF938091740271
